{
  "contractName": "ConvertLib",
  "abi": [
    {
      "constant": true,
      "inputs": [
        {
          "name": "amount",
          "type": "uint256"
        },
        {
          "name": "conversionRate",
          "type": "uint256"
        }
      ],
      "name": "convert",
      "outputs": [
        {
          "name": "convertedAmount",
          "type": "uint256"
        }
      ],
      "payable": false,
      "stateMutability": "pure",
      "type": "function"
    }
  ],
  "bytecode": "0x60d061002f600b82828239805160001a6073146000811461001f57610021565bfe5b5030600052607381538281f30073000000000000000000000000000000000000000030146080604052600436106056576000357c0100000000000000000000000000000000000000000000000000000000900463ffffffff16806396e4ee3d14605b575b600080fd5b608160048036038101908080359060200190929190803590602001909291905050506097565b6040518082815260200191505060405180910390f35b60008183029050929150505600a165627a7a72305820bc27b0e545542e599f3af4ec2620da3b4ea3e2602242cdd07950b6938b63cae60029",
  "source": "pragma solidity >=0.4.22 <0.7.0;\n\nlibrary ConvertLib{\n\tfunction convert(uint amount,uint conversionRate) public pure returns (uint convertedAmount)\n\t{\n\t\treturn amount * conversionRate;\n\t}\n}\n",
  "sourcePath": "C:\\Users\\rgbor\\OneDrive\\Documents\\blockchain\\contracts\\ConvertLib.sol",
  "compiler": {
    "name": "solc",
    "version": "0.4.26+commit.4563c3fc.Emscripten.clang"
  },
  "schemaVersion": "3.4.15",
  "updatedAt": "2023-12-02T12:51:18.341Z",
  "devdoc": {
    "methods": {}
  },
  "userdoc": {
    "methods": {}
  }
}