{
  "contractName": "Greetings",
  "abi": [
    {
      "constant": true,
      "inputs": [],
      "name": "number",
      "outputs": [
        {
          "name": "",
          "type": "uint256"
        }
      ],
      "payable": false,
      "stateMutability": "view",
      "type": "function"
    },
    {
      "constant": true,
      "inputs": [],
      "name": "greeting",
      "outputs": [
        {
          "name": "",
          "type": "string"
        }
      ],
      "payable": false,
      "stateMutability": "view",
      "type": "function"
    },
    {
      "constant": true,
      "inputs": [],
      "name": "multiply",
      "outputs": [
        {
          "name": "",
          "type": "uint256"
        }
      ],
      "payable": false,
      "stateMutability": "pure",
      "type": "function"
    }
  ],
  "bytecode": "0x60806040526040805190810160405280601681526020017f48656c6c6f20576f726c642120486579205468657265000000000000000000008152506000908051906020019061004f929190610067565b50604660015534801561006157600080fd5b5061010c565b828054600181600116156101000203166002900490600052602060002090601f016020900481019282601f106100a857805160ff19168380011785556100d6565b828001600101855582156100d6579182015b828111156100d55782518255916020019190600101906100ba565b5b5090506100e391906100e7565b5090565b61010991905b808211156101055760008160009055506001016100ed565b5090565b90565b61021b8061011b6000396000f300608060405260043610610057576000357c0100000000000000000000000000000000000000000000000000000000900463ffffffff1680638381f58a1461005c578063ef690cc014610087578063f3593cd014610117575b600080fd5b34801561006857600080fd5b50610071610142565b6040518082815260200191505060405180910390f35b34801561009357600080fd5b5061009c610148565b6040518080602001828103825283818151815260200191508051906020019080838360005b838110156100dc5780820151818401526020810190506100c1565b50505050905090810190601f1680156101095780820380516001836020036101000a031916815260200191505b509250505060405180910390f35b34801561012357600080fd5b5061012c6101e6565b6040518082815260200191505060405180910390f35b60015481565b60008054600181600116156101000203166002900480601f0160208091040260200160405190810160405280929190818152602001828054600181600116156101000203166002900480156101de5780601f106101b3576101008083540402835291602001916101de565b820191906000526020600020905b8154815290600101906020018083116101c157829003601f168201915b505050505081565b600060019050905600a165627a7a72305820aaf13d7efaafb0a1020935cba4d42328cac77996bb51d4cf691e59f98680685f0029",
  "source": "// SPDX-License-Identifier: MIT\r\npragma solidity ^0.4.22;\r\n\r\ncontract Greetings {\r\n  string public greeting = \"Hello World! Hey There\";\r\n  uint256 public number = 70;\r\n  function multiply() public pure returns(uint) {\r\n    return 1;\r\n    // return 12*number;\r\n  }\r\n}\r\n",
  "sourcePath": "C:\\Users\\rgbor\\OneDrive\\Documents\\blockchain\\contracts\\Greetings.sol",
  "compiler": {
    "name": "solc",
    "version": "0.4.26+commit.4563c3fc.Emscripten.clang"
  },
  "schemaVersion": "3.4.15",
  "updatedAt": "2023-12-02T12:51:18.343Z",
  "devdoc": {
    "methods": {}
  },
  "userdoc": {
    "methods": {}
  }
}